{
  "_format": "hh-sol-artifact-1",
  "contractName": "TransactionManager",
  "sourceName": "contracts/TransactionManager.sol",
  "abi": [
    {
      "anonymous": false,
      "inputs": [
        {
          "indexed": true,
          "internalType": "address",
          "name": "sender",
          "type": "address"
        },
        {
          "indexed": true,
          "internalType": "address",
          "name": "receiver",
          "type": "address"
        },
        {
          "indexed": false,
          "internalType": "uint256",
          "name": "amount",
          "type": "uint256"
        }
      ],
      "name": "TransactionMade",
      "type": "event"
    },
    {
      "inputs": [
        {
          "internalType": "address",
          "name": "user",
          "type": "address"
        }
      ],
      "name": "getTransactions",
      "outputs": [
        {
          "components": [
            {
              "internalType": "address",
              "name": "sender",
              "type": "address"
            },
            {
              "internalType": "address",
              "name": "receiver",
              "type": "address"
            },
            {
              "internalType": "uint256",
              "name": "amount",
              "type": "uint256"
            },
            {
              "internalType": "uint256",
              "name": "timestamp",
              "type": "uint256"
            }
          ],
          "internalType": "struct TransactionManager.Transaction[]",
          "name": "",
          "type": "tuple[]"
        }
      ],
      "stateMutability": "view",
      "type": "function"
    },
    {
      "inputs": [
        {
          "internalType": "address",
          "name": "receiver",
          "type": "address"
        }
      ],
      "name": "sendTransaction",
      "outputs": [],
      "stateMutability": "payable",
      "type": "function"
    },
    {
      "inputs": [
        {
          "internalType": "address",
          "name": "",
          "type": "address"
        },
        {
          "internalType": "uint256",
          "name": "",
          "type": "uint256"
        }
      ],
      "name": "userTransactions",
      "outputs": [
        {
          "internalType": "address",
          "name": "sender",
          "type": "address"
        },
        {
          "internalType": "address",
          "name": "receiver",
          "type": "address"
        },
        {
          "internalType": "uint256",
          "name": "amount",
          "type": "uint256"
        },
        {
          "internalType": "uint256",
          "name": "timestamp",
          "type": "uint256"
        }
      ],
      "stateMutability": "view",
      "type": "function"
    }
  ],
  "bytecode": "0x608060405234801561001057600080fd5b506109a5806100206000396000f3fe6080604052600436106100345760003560e01c80630f8cda20146100395780632bd123fe14610076578063b842ec4414610092575b600080fd5b34801561004557600080fd5b50610060600480360381019061005b91906105db565b6100d2565b60405161006d9190610734565b60405180910390f35b610090600480360381019061008b91906105db565b610235565b005b34801561009e57600080fd5b506100b960048036038101906100b49190610782565b6104eb565b6040516100c994939291906107e0565b60405180910390f35b606060008060008473ffffffffffffffffffffffffffffffffffffffff1673ffffffffffffffffffffffffffffffffffffffff168152602001908152602001600020805480602002602001604051908101604052809291908181526020016000905b8282101561022657838290600052602060002090600402016040518060800160405290816000820160009054906101000a900473ffffffffffffffffffffffffffffffffffffffff1673ffffffffffffffffffffffffffffffffffffffff1673ffffffffffffffffffffffffffffffffffffffff1681526020016001820160009054906101000a900473ffffffffffffffffffffffffffffffffffffffff1673ffffffffffffffffffffffffffffffffffffffff1673ffffffffffffffffffffffffffffffffffffffff1681526020016002820154815260200160038201548152505081526020019060010190610134565b50505050905080915050919050565b60003411610278576040517f08c379a000000000000000000000000000000000000000000000000000000000815260040161026f90610882565b60405180910390fd5b600060405180608001604052803373ffffffffffffffffffffffffffffffffffffffff1681526020018373ffffffffffffffffffffffffffffffffffffffff1681526020013481526020014281525090506000803373ffffffffffffffffffffffffffffffffffffffff1673ffffffffffffffffffffffffffffffffffffffff16815260200190815260200160002081908060018154018082558091505060019003906000526020600020906004020160009091909190915060008201518160000160006101000a81548173ffffffffffffffffffffffffffffffffffffffff021916908373ffffffffffffffffffffffffffffffffffffffff16021790555060208201518160010160006101000a81548173ffffffffffffffffffffffffffffffffffffffff021916908373ffffffffffffffffffffffffffffffffffffffff1602179055506040820151816002015560608201518160030155505060008273ffffffffffffffffffffffffffffffffffffffff16346040516103fb906108d3565b60006040518083038185875af1925050503d8060008114610438576040519150601f19603f3d011682016040523d82523d6000602084013e61043d565b606091505b5050905080610481576040517f08c379a000000000000000000000000000000000000000000000000000000000815260040161047890610934565b60405180910390fd5b8273ffffffffffffffffffffffffffffffffffffffff163373ffffffffffffffffffffffffffffffffffffffff167f4e14d3d55a435ef2aee46756984f50ee42f895efb7eb97f9c8ab2ea0961da735346040516104de9190610954565b60405180910390a3505050565b6000602052816000526040600020818154811061050757600080fd5b9060005260206000209060040201600091509150508060000160009054906101000a900473ffffffffffffffffffffffffffffffffffffffff16908060010160009054906101000a900473ffffffffffffffffffffffffffffffffffffffff16908060020154908060030154905084565b600080fd5b600073ffffffffffffffffffffffffffffffffffffffff82169050919050565b60006105a88261057d565b9050919050565b6105b88161059d565b81146105c357600080fd5b50565b6000813590506105d5816105af565b92915050565b6000602082840312156105f1576105f0610578565b5b60006105ff848285016105c6565b91505092915050565b600081519050919050565b600082825260208201905092915050565b6000819050602082019050919050565b61063d8161059d565b82525050565b6000819050919050565b61065681610643565b82525050565b6080820160008201516106726000850182610634565b5060208201516106856020850182610634565b506040820151610698604085018261064d565b5060608201516106ab606085018261064d565b50505050565b60006106bd838361065c565b60808301905092915050565b6000602082019050919050565b60006106e182610608565b6106eb8185610613565b93506106f683610624565b8060005b8381101561072757815161070e88826106b1565b9750610719836106c9565b9250506001810190506106fa565b5085935050505092915050565b6000602082019050818103600083015261074e81846106d6565b905092915050565b61075f81610643565b811461076a57600080fd5b50565b60008135905061077c81610756565b92915050565b6000806040838503121561079957610798610578565b5b60006107a7858286016105c6565b92505060206107b88582860161076d565b9150509250929050565b6107cb8161059d565b82525050565b6107da81610643565b82525050565b60006080820190506107f560008301876107c2565b61080260208301866107c2565b61080f60408301856107d1565b61081c60608301846107d1565b95945050505050565b600082825260208201905092915050565b7f416d6f756e74206d7573742062652067726561746572207468616e207a65726f600082015250565b600061086c602083610825565b915061087782610836565b602082019050919050565b6000602082019050818103600083015261089b8161085f565b9050919050565b600081905092915050565b50565b60006108bd6000836108a2565b91506108c8826108ad565b600082019050919050565b60006108de826108b0565b9150819050919050565b7f4661696c656420746f2073656e64204574686572000000000000000000000000600082015250565b600061091e601483610825565b9150610929826108e8565b602082019050919050565b6000602082019050818103600083015261094d81610911565b9050919050565b600060208201905061096960008301846107d1565b9291505056fea2646970667358221220838af3817d76b43068b21842efe54cdf307a242b67ad42bb6339bea46e0652e864736f6c63430008180033",
  "linkReferences": {},
  "deployedLinkReferences": {}
}