{
  "_format": "hh-sol-artifact-1",
  "contractName": "TransactionManager",
  "sourceName": "contracts/TransactionManager.sol",
  "abi": [
    {
      "anonymous": false,
      "inputs": [
        {
          "indexed": true,
          "internalType": "address",
          "name": "sender",
          "type": "address"
        },
        {
          "indexed": true,
          "internalType": "address",
          "name": "receiver",
          "type": "address"
        },
        {
          "indexed": false,
          "internalType": "uint256",
          "name": "amount",
          "type": "uint256"
        }
      ],
      "name": "TransactionMade",
      "type": "event"
    },
    {
      "inputs": [
        {
          "internalType": "address",
          "name": "user",
          "type": "address"
        }
      ],
      "name": "getTransactions",
      "outputs": [
        {
          "components": [
            {
              "internalType": "address",
              "name": "sender",
              "type": "address"
            },
            {
              "internalType": "address",
              "name": "receiver",
              "type": "address"
            },
            {
              "internalType": "uint256",
              "name": "amount",
              "type": "uint256"
            },
            {
              "internalType": "uint256",
              "name": "timestamp",
              "type": "uint256"
            }
          ],
          "internalType": "struct TransactionManager.Transaction[]",
          "name": "",
          "type": "tuple[]"
        }
      ],
      "stateMutability": "nonpayable",
      "type": "function"
    },
    {
      "inputs": [
        {
          "internalType": "address",
          "name": "receiver",
          "type": "address"
        }
      ],
      "name": "sendTransaction",
      "outputs": [],
      "stateMutability": "payable",
      "type": "function"
    },
    {
      "inputs": [
        {
          "internalType": "address",
          "name": "",
          "type": "address"
        },
        {
          "internalType": "uint256",
          "name": "",
          "type": "uint256"
        }
      ],
      "name": "userTransactions",
      "outputs": [
        {
          "internalType": "address",
          "name": "sender",
          "type": "address"
        },
        {
          "internalType": "address",
          "name": "receiver",
          "type": "address"
        },
        {
          "internalType": "uint256",
          "name": "amount",
          "type": "uint256"
        },
        {
          "internalType": "uint256",
          "name": "timestamp",
          "type": "uint256"
        }
      ],
      "stateMutability": "view",
      "type": "function"
    }
  ],
  "bytecode": "0x608060405234801561001057600080fd5b50610a80806100206000396000f3fe6080604052600436106100345760003560e01c80630f8cda20146100395780632bd123fe14610076578063b842ec4414610092575b600080fd5b34801561004557600080fd5b50610060600480360381019061005b919061064a565b6100d2565b60405161006d91906107a3565b60405180910390f35b610090600480360381019061008b919061064a565b610235565b005b34801561009e57600080fd5b506100b960048036038101906100b491906107f1565b61055a565b6040516100c9949392919061084f565b60405180910390f35b606060008060008473ffffffffffffffffffffffffffffffffffffffff1673ffffffffffffffffffffffffffffffffffffffff168152602001908152602001600020805480602002602001604051908101604052809291908181526020016000905b8282101561022657838290600052602060002090600402016040518060800160405290816000820160009054906101000a900473ffffffffffffffffffffffffffffffffffffffff1673ffffffffffffffffffffffffffffffffffffffff1673ffffffffffffffffffffffffffffffffffffffff1681526020016001820160009054906101000a900473ffffffffffffffffffffffffffffffffffffffff1673ffffffffffffffffffffffffffffffffffffffff1673ffffffffffffffffffffffffffffffffffffffff1681526020016002820154815260200160038201548152505081526020019060010190610134565b50505050905080915050919050565b60003411610278576040517f08c379a000000000000000000000000000000000000000000000000000000000815260040161026f906108f1565b60405180910390fd5b600073ffffffffffffffffffffffffffffffffffffffff168173ffffffffffffffffffffffffffffffffffffffff16036102e7576040517f08c379a00000000000000000000000000000000000000000000000000000000081526004016102de9061095d565b60405180910390fd5b600060405180608001604052803373ffffffffffffffffffffffffffffffffffffffff1681526020018373ffffffffffffffffffffffffffffffffffffffff1681526020013481526020014281525090506000803373ffffffffffffffffffffffffffffffffffffffff1673ffffffffffffffffffffffffffffffffffffffff16815260200190815260200160002081908060018154018082558091505060019003906000526020600020906004020160009091909190915060008201518160000160006101000a81548173ffffffffffffffffffffffffffffffffffffffff021916908373ffffffffffffffffffffffffffffffffffffffff16021790555060208201518160010160006101000a81548173ffffffffffffffffffffffffffffffffffffffff021916908373ffffffffffffffffffffffffffffffffffffffff1602179055506040820151816002015560608201518160030155505060008273ffffffffffffffffffffffffffffffffffffffff163460405161046a906109ae565b60006040518083038185875af1925050503d80600081146104a7576040519150601f19603f3d011682016040523d82523d6000602084013e6104ac565b606091505b50509050806104f0576040517f08c379a00000000000000000000000000000000000000000000000000000000081526004016104e790610a0f565b60405180910390fd5b8273ffffffffffffffffffffffffffffffffffffffff163373ffffffffffffffffffffffffffffffffffffffff167f4e14d3d55a435ef2aee46756984f50ee42f895efb7eb97f9c8ab2ea0961da7353460405161054d9190610a2f565b60405180910390a3505050565b6000602052816000526040600020818154811061057657600080fd5b9060005260206000209060040201600091509150508060000160009054906101000a900473ffffffffffffffffffffffffffffffffffffffff16908060010160009054906101000a900473ffffffffffffffffffffffffffffffffffffffff16908060020154908060030154905084565b600080fd5b600073ffffffffffffffffffffffffffffffffffffffff82169050919050565b6000610617826105ec565b9050919050565b6106278161060c565b811461063257600080fd5b50565b6000813590506106448161061e565b92915050565b6000602082840312156106605761065f6105e7565b5b600061066e84828501610635565b91505092915050565b600081519050919050565b600082825260208201905092915050565b6000819050602082019050919050565b6106ac8161060c565b82525050565b6000819050919050565b6106c5816106b2565b82525050565b6080820160008201516106e160008501826106a3565b5060208201516106f460208501826106a3565b50604082015161070760408501826106bc565b50606082015161071a60608501826106bc565b50505050565b600061072c83836106cb565b60808301905092915050565b6000602082019050919050565b600061075082610677565b61075a8185610682565b935061076583610693565b8060005b8381101561079657815161077d8882610720565b975061078883610738565b925050600181019050610769565b5085935050505092915050565b600060208201905081810360008301526107bd8184610745565b905092915050565b6107ce816106b2565b81146107d957600080fd5b50565b6000813590506107eb816107c5565b92915050565b60008060408385031215610808576108076105e7565b5b600061081685828601610635565b9250506020610827858286016107dc565b9150509250929050565b61083a8161060c565b82525050565b610849816106b2565b82525050565b60006080820190506108646000830187610831565b6108716020830186610831565b61087e6040830185610840565b61088b6060830184610840565b95945050505050565b600082825260208201905092915050565b7f416d6f756e74206d7573742062652067726561746572207468616e207a65726f600082015250565b60006108db602083610894565b91506108e6826108a5565b602082019050919050565b6000602082019050818103600083015261090a816108ce565b9050919050565b7f526563656976657220616464726573732063616e6e6f74206265207a65726f00600082015250565b6000610947601f83610894565b915061095282610911565b602082019050919050565b600060208201905081810360008301526109768161093a565b9050919050565b600081905092915050565b50565b600061099860008361097d565b91506109a382610988565b600082019050919050565b60006109b98261098b565b9150819050919050565b7f4661696c656420746f2073656e64204574686572000000000000000000000000600082015250565b60006109f9601483610894565b9150610a04826109c3565b602082019050919050565b60006020820190508181036000830152610a28816109ec565b9050919050565b6000602082019050610a446000830184610840565b9291505056fea2646970667358221220d5b739fa2c86b181ba9ad97efa4585adb3867125d0ef326656ccd3eba0dd716064736f6c63430008180033",
  "linkReferences": {},
  "deployedLinkReferences": {}
}